:100000000C94B5000C94E9000C94F8000C94D20008
:100010000C94D2000C94D2000C94D2000C94D20018
:100020000C94D2000C94BA020C94D2000C94D2001E
:100030000C94D2000C94D2000C94D2000C94D200F8
:100040000C94D2000C94D2000C94D2000C94D200E8
:100050000C94D2000C94D2000C94D2000C94D200D8
:100060000C94D2000C94D2006E616E00696E660032
:1000700000407A10F35A00A0724E18090010A5D45F
:10008000E80000E87648170000E40B54020000CABC
:100090009A3B000000E1F505000080969800000002
:1000A00040420F000000A086010000001027000061
:1000B0000000E803000000006400000000000A00E7
:1000C000000000000100000000002C76D888DC67EA
:1000D0004F0823DFC1DFAE59E1B1B796E5E3E45342
:1000E000C63AE651997696E8E6C28426EB898C9B5F
:1000F00062ED407C6FFCEFBC9C9F40F2BAA56FA5FF
:10010000F490055A2AF75C936B6CF9676DC11BFC80
:10011000E0E40D47FEF520E6B500D0ED902E03009B
:10012000943577050080841E080000204E0A0000E8
:1001300000C80C333333330F986E12831141EF8DA7
:100140002114893BE65516CFFEE6DB18D1844B38E7
:100150001BF77C1D901DA4BBE424203284725E2218
:100160008100C9F124ECA1E53D2711241FBECFEF8A
:10017000D8E0DEBFCDBF11E0A0E0B1E0E8E1F2E100
:1001800002C005900D92A432B107D9F711E0A4E2A4
:10019000B1E001C01D92A033B107E1F70E94070151
:1001A0000C940A090C9400008AB1837F8AB98BB140
:1001B0008C608BB9E9E6F0E080818A7F8083808162
:1001C0008A6080838CB383608CBB8DB383608DBB6E
:1001D00008951F920F920FB60F9211248F9381E012
:1001E000809324018F910F900FBE0F901F90189550
:1001F0001F920F920FB60F9211248F9381E080937C
:1002000025018F910F900FBE0F901F901895EF92C0
:10021000FF920F931F93CF93DF930E94D4000E940D
:10022000170382E090E067E041E050E00E94550251
:1002300080E090E060E041E050E00E94550280E004
:1002400090E061E041E050E00E94550280E090E0E3
:1002500063E041E050E00E9455027894C0E0D0E0B5
:1002600000E911E080E4E82E8CE9F82EC230D105D7
:1002700009F47EC0C330D10538F4209771F0C13045
:10028000D10509F00EC132C0C330D10509F4C5C093
:10029000C430D10509F005C1EDC082E090E067E00F
:1002A00040E050E00E94790280E090E060E040E0B1
:1002B00050E00E94790280E090E061E040E050E090
:1002C0000E94790280E090E063E040E050E00E940C
:1002D000790280E00E94F80280912401882309F4C9
:1002E000E0C010922401C1E0D0E0DBC080E090E0EB
:1002F00060E041E050E00E94790284EF91E0F80173
:100300003197F1F70197D9F780E090E060E040E0A5
:1003100050E00E94790284EF91E0F8013197F1F703
:100320000197D9F7909126019F5F909326018091C4
:100330002501882371F0109225011092260180E09A
:1003400090E060E040E050E00E947902C3E0D0E03D
:10035000A8C09E3108F4A5C01092260180E090E06C
:1003600060E040E050E00E947902C2E0D0E099C035
:1003700080E090E061E041E050E00E94790280E09E
:1003800090E063E041E050E00E94790288EE93E063
:10039000F8013197F1F70197D9F780E090E061E03B
:1003A00040E050E00E94790280E090E063E040E0AD
:1003B00050E00E94790288EE93E0F8013197F1F75E
:1003C0000197D9F780E090E061E041E050E00E94C1
:1003D000790280E090E063E041E050E00E94790221
:1003E00088EE93E0F8013197F1F70197D9F780E0B3
:1003F00090E061E040E050E00E94790280E090E00F
:1004000063E040E050E00E94790288EE93E0F8015A
:100410003197F1F70197D9F73EC082E090E067E0AD
:1004200041E050E00E94790280E090E063E041E02A
:1004300050E00E94790280ED97E0F8013197F1F7E2
:100440000197D9F780E090E063E040E050E00E943F
:1004500079028AE50E94F80280E29EE4F801319771
:10046000F1F70197D9F71092240110922501C4E009
:10047000D0E017C082E090E067E040E050E00E94EA
:10048000790280E00E94F80288E893E1F801319750
:10049000F1F70197D9F71092240110922501C0E0DD
:1004A000D0E0C7010197F1F7E1CEFC01EE0FFF1F8D
:1004B0004130510569F4E45FFE4F0190F081E02D79
:1004C000808102C0440F551F6A95E2F7842B0FC04C
:1004D000E45FFE4F0190F081E02D208181E090E00B
:1004E00002C0880F991F6A95E2F780958223808366
:1004F0000895FC01EE0FFF1F4130510569F4EA5FDA
:10050000FE4F0190F081E02D808102C0440F551F05
:100510006A95E2F7842B0FC0EA5FFE4F0190F081ED
:10052000E02D208181E090E002C0880F991F6A953C
:10053000E2F7809582238083089520E030E0442311
:1005400011F021E030E0A9010E9479020895FC0138
:10055000EE0FFF1FE050FF4F0190F081E02D208152
:1005600030E002C0359527956A95E2F7217030702A
:10057000C90108951F920F920FB60F9211242F9365
:100580003F938F939F9380912701909128018058EA
:100590009F4F90932801809327018091270190918C
:1005A000280180529E4448F01092280110922701A1
:1005B0002A9A81E08093290112C080912901882321
:1005C00071F02091270130912801809113019091C1
:1005D00014012817390718F02A98109229019F91C1
:1005E0008F913F912F910F900FBE0F901F901895F4
:1005F000853B08F084EB80931201682F70E080E067
:1006000090E020ED37E040E050E00E941A0724EB34
:1006100030E040E050E00E9439072C503E4F8FB749
:10062000F89430931401209313018FBF0895229AF8
:100630002A981092B00082E08093B10081E080930C
:1006400070008AE50E94F8020895BC0181E0643FD1
:10065000780718F464EF71E006C089E0653C78071C
:1006600010F064EC79E08FB7F89470931401609304
:1006700013018FBF645F714080E090E024EB30E0B5
:1006800040E050E00E941A0720ED37E040E050E0E3
:100690000E94390720931201089522E330E0AC0153
:1006A000429FC001439F900D529F900D11240E94C4
:1006B00025030895E0E7F0E080818E7F80832A980B
:1006C0000895109228011092270110922901E0E765
:1006D000F0E0808181608083089580911201089507
:1006E000982F8091C00085FFFCCF9093C60080E0DA
:1006F00090E008951092C50087E68093C400E1EC75
:10070000F0E088E0808386E08093C2008081806989
:10071000808385E191E090932D0180932C010895D1
:1007200085E191E00895A1E1B0E0E9E9F3E00C94FE
:100730005B073C017F876E876A01FC011782168286
:10074000838181FD03C06FEF7FEF6FC39E012F5F39
:100750003F4F398B288BF3012381EE85FF8523FDE5
:10076000859123FF8191FF87EE87882309F45AC37F
:10077000853251F4EE85FF8523FD859123FF81911C
:10078000FF87EE87853229F490E0B3010E9480084C
:10079000E2CF982F10E0882499241032B0F49B32D5
:1007A00069F09C3228F4903251F0933271F40BC00E
:1007B0009D3239F0903349F4116028C01260146002
:1007C00025C0186023C0106121C017FD2AC0892FE1
:1007D00080538A3078F416FF06C0FAE09F9E902C72
:1007E0001124980E13C03AE0839E802C1124880EA9
:1007F00010620CC09E3221F416FD14C3106406C0B2
:100800009C3611F4106802C0983659F4EE85FF85C5
:1008100023FD959123FF9191FF87EE87992309F09E
:10082000BCCF892F8554833020F4812F8061905E66
:1008300007C0892F8556833008F09FC1812F8F7E96
:1008400086FD02C076E0972E6FE3F62EF8229536ED
:1008500019F4F0E4FF2A07C0963619F420E8F22ACA
:1008600002C091109A94F7FE0AC03BE3391518F4C0
:100870005CE3B52E02C0B92CB39427E009C047E071
:10088000491520F4BB2447E0942EF7CF292DBB2433
:10089000C60104969D878C87F601608171818281F3
:1008A0009381AE014F5F5F4F0B2D0E9492076C0149
:1008B0000981202E332400FF04C003FD02C01DE285
:1008C00009C0F1FE02C01BE205C0F2FC02C010E04C
:1008D00001C010E2C1018C709070892BB9F1112315
:1008E00011F483E001C084E0881510F088240AC068
:1008F000881AF3FC07C080E290E0B3010E948008F0
:100900008A94C9F7112329F0812F90E0B3010E9446
:10091000800823FE03C008E610E00EC00CE610E0DD
:100920000BC0E114F10409F0805290E0B3010E9481
:1009300080080F5F1F4F05C0EF2CFF24F0E1EF226E
:10094000FF24F8018491882361F714C1F7FE12C0D7
:10095000BC0C24FE04C08A81813309F4BA941B14B0
:100960001CF0BB24B3942DC0F8E0FB1550F538E023
:10097000B32E27C0F6FC25C0892D90E08C159D056F
:100980004CF02CEFC2162FEFD20624F030E8F32AF9
:1009900001C09A94992049F0E2E0F0E0EC0FFD1FCD
:1009A000E90DF11D80818033A1F3F7FE0AC0B92C57
:1009B000B394892D90E0C816D90614F0992401C08B
:1009C0009C18F7FC03C025E030E009C01C141D048E
:1009D0001CF021E030E003C096012F5F3F4F112350
:1009E00011F02F5F3F4F992029F0892D90E001965B
:1009F000280F391F882D90E02817390714F0882414
:100A000001C0821A4F2C5524C20189709070892B25
:100A100039F008C080E290E0B3010E9480088A9417
:100A20008820C1F7112329F0812F90E0B3010E94A3
:100A3000800843FE07C008C080E390E0B3010E9435
:100A400080088A948820C1F7F7FE46C08601D7FE49
:100A500002C000E010E076010894E11CF11CE01AED
:100A6000F10A41E050E04C0F5D1FE40EF51E260137
:100A70004B185108892D90E0AA24BB24A81AB90A62
:100A80005FEF0F3F150729F48EE290E0B3010E945B
:100A90008008C016D10634F0401651061CF4F70148
:100AA000808101C080E3015010400894E11CF11CDA
:100AB0000A151B052CF090E0B3010E948008E0CFDE
:100AC0000C151D0539F49A81963318F4953311F4F9
:100AD00024FE81E390E04BC08A81813309F00F7ED0
:100AE00090E0B3010E9480089920A1F08EE290E08E
:100AF000B3010E94800812E0E1E0F0E0EC0FFD1F7E
:100B0000E10FF11D1F5F808190E0B3010E9480081A
:100B10009A9491F744FC03C085E690E002C085E416
:100B200090E0B3010E948008D7FC05C0C114D10435
:100B300041F404FF06C0D094C194D108D3948DE24F
:100B400001C08BE290E0B3010E94800880E305C001
:100B50008F5F26EF3FEFC20ED31E3AE0C316D104DB
:100B6000BCF790E0B3010E948008C601C096B301B3
:100B70000E948008CC84DD8452C1933631F09337D3
:100B800099F0933509F059C023C0F601808189831B
:100B90005E010894A11CB11C22E030E0C20ED31EFD
:100BA00021E0E22EF12C12C0F601A080B18016FDEA
:100BB00003C06FEF7FEF02C0692D70E022E030E0EC
:100BC000C20ED31EC5010E9475087C011F7713C099
:100BD000F601A080B18016FD03C06FEF7FEF02C069
:100BE000692D70E022E030E0C20ED31EC5010E94E4
:100BF0006A087C01106813FF07C01BC080E290E008
:100C0000B3010E9480088A94882D90E0E816F906C6
:100C1000A8F30FC0F50117FD859117FF81915F01C2
:100C200090E0B3010E94800881108A940894E10842
:100C3000F108E114F10471F7F2C0943611F099361D
:100C400089F517FF08C0F601208131814281538167
:100C500084E090E00AC0F601808191819C014427E4
:100C600037FD4095542F82E090E0C80ED91E9FE6D4
:100C7000F92EF12257FF09C05095409530952195E6
:100C80003F4F4F4F5F4F90E8F92ACA01B901AE01BB
:100C90004F5F5F4F2AE030E00E94AC08E82EE88901
:100CA000EE1A41C0953721F41F7E2AE030E01CC0C7
:100CB000197F9F3661F0903720F4983509F0B2C063
:100CC0000FC0903739F0983709F0ACC004C028E065
:100CD00030E00AC0106114FD146020E130E004C06F
:100CE00014FD166020E132E017FF08C0F6016081B4
:100CF00071818281938144E050E008C0F6018081D7
:100D00009181BC0180E090E042E050E0C40ED51E2D
:100D1000AE014F5F5F4F0E94AC08E82E5889E51A7C
:100D20008FE7F82EF122F6FE0BC08EEFF822E914C1
:100D300038F4F4FE07C0F2FC05C09FEEF92202C0B1
:100D40001E2D01C0192DF4FE0DC0FE01EE0DF11D8A
:100D50008081803319F4E9EEFE2208C01F5FF2FEA5
:100D600005C003C08F2D867809F01F5F0F2DF3FC9F
:100D700014C0F0FE0FC0181510F09E2C0BC09E2C56
:100D8000980C911A182D06C080E290E0B3010E94E1
:100D900080081F5F1815C0F304C0181510F4811ADD
:100DA00001C0882404FF0FC080E390E0B3010E94DB
:100DB000800802FF1DC001FD03C088E790E00EC05F
:100DC00088E590E00BC0802F867891F001FF02C08B
:100DD0008BE201C080E2F7FC8DE290E0B3010E945B
:100DE000800806C080E390E0B3010E9480089A94D6
:100DF000E914C0F3EA94E1E0F0E0EC0FFD1FEE0D22
:100E0000F11D808190E0B3010E948008EE2091F7EF
:100E100006C080E290E0B3010E9480088A94882096
:100E2000C1F799CCF30166817781CB016196E2E14C
:100E30000C947707629FD001739FF001829FE00DB1
:100E4000F11D649FE00DF11D929FF00D839FF00D49
:100E5000749FF00D659FF00D9927729FB00DE11DF5
:100E6000F91F639FB00DE11DF91FBD01CF011124D2
:100E70000895A1E21A2EAA1BBB1BFD010DC0AA1FDB
:100E8000BB1FEE1FFF1FA217B307E407F50720F0F3
:100E9000A21BB30BE40BF50B661F771F881F991F6E
:100EA0001A9469F760957095809590959B01AC01B7
:100EB000BD01CF0108952F923F924F925F926F92A2
:100EC0007F928F929F92AF92BF92CF92DF92EF92DA
:100ED000FF920F931F93CF93DF93CDB7DEB7CA1B5B
:100EE000DB0B0FB6F894DEBF0FBECDBF09942A8886
:100EF000398848885F846E847D848C849B84AA842E
:100F0000B984C884DF80EE80FD800C811B81AA81BA
:100F1000B981CE0FD11D0FB6F894DEBF0FBECDBF85
:100F2000ED010895283008F027E03327DA01990F02
:100F3000311D87FD916000966105710539F43260BD
:100F40002E5F3D9330E32A95E1F708959F3F30F0FF
:100F500080387105610509F03C5F3C5F3D9391303D
:100F600008F08068911DDF93CF931F930F93FF923A
:100F7000EF92192F987F9695E92F96959695E90F00
:100F8000FF27E653FF4F99273327EE24FF24A701BD
:100F9000E70105900894079428F4360FE71EF81E21
:100FA000491F511D660F771F881F991F0694A1F7CF
:100FB0000590079428F4E70EF81E491F561FC11D1F
:100FC000770F881F991F661F0694A1F70590079455
:100FD00028F4F80E491F561FC71FD11D880F991FEF
:100FE000661F771F0694A1F70590079420F4490F18
:100FF000561FC71FD81F990F661F771F881F06949B
:10100000A9F784911095177041F0D695C79557951B
:101010004795F794E7941A95C1F7E0E7F0E06894F4
:101020001590159135916591959105907FE2739595
:10103000E118F10A430B560BC90BD009C0F7E10CBC
:10104000F11E431F561FC91FD01D7EF4703311F4CB
:101050008A95E6CFE894015030F0080F0AF4002793
:10106000021708F4202F2395022F7A3328F079E312
:101070007D932A95E9F710C07D932A9589F6069409
:1010800097956795379517951794E118F10A430BD3
:10109000560BC90BD00998F023957E9173957A333E
:1010A00008F070E37C932013B8F77E9170617D9314
:1010B00030F0839571E37D9370E32A95E1F7112475
:1010C000EF90FF900F911F91CF91DF91992787FDAE
:1010D00090950895FC010590615070400110D8F77B
:1010E000809590958E0F9F1F0895FC016150704070
:1010F00001900110D8F7809590958E0F9F1F08954D
:101100000F931F93CF93DF938C01EB018B8181FFB2
:101110001BC082FF0DC02E813F818C819D812817CD
:10112000390764F4E881F9810193F983E88306C003
:10113000E885F985802F0995892B31F48E819F816F
:1011400001969F838E8302C00FEF1FEFC801DF91CE
:10115000CF911F910F910895FA01AA27283051F1DC
:10116000203181F1E8946F936E7F6E5F7F4F8F4FD8
:101170009F4FAF4FB1E03ED0B4E03CD0670F781F37
:10118000891F9A1FA11D680F791F8A1F911DA11D1C
:101190006A0F711D811D911DA11D20D009F4689455
:1011A0003F912AE0269F11243019305D3193DEF6FD
:1011B000CF010895462F4770405D4193B3E00FD0B3
:1011C000C9F7F6CF462F4F70405D4A3318F0495D9E
:1011D00031FD4052419302D0A9F7EACFB4E0A69581
:1011E0009795879577956795BA95C9F700976105A3
:1011F000710508959B01AC010A2E069457954795F9
:1012000037952795BA95C9F7620F731F841F951FED
:08121000A01D0895F894FFCF22
:10121800230026002900250028002B002400270091
:101228002A005ADC050000000200000000700300DC
:0412380000000000B2
:00000001FF
